:0408BA000208000030
:0308BF00D28C22B6
:03000B0002088C5C
:10088C00C0E00509E5097002050864054508700615
:0F089C00B2B0F508F509758C15758A9FD0E0325A
:0708B30075890175A882227E
:0808AB001208BF1208B380FE21
:03000000020800F3
:0C080000787FE4F6D8FD758109020847F6
:10080C000208ABE493A3F8E493A34003F68001F24F
:10081C0008DFF48029E493A3F85407240CC8C333ED
:10082C00C4540F4420C8834004F456800146F6DFBC
:10083C00E4800B01020408102040809008BAE47E8A
:10084C00019360BCA3FF543F30E509541FFEE493B1
:10085C00A360010ECF54C025E060A840B8E493A378
:10086C00FAE493A3F8E493A3C8C582C8CAC583CAA3
:10087C00F0A3C8C582C8CAC583CADFE9DEE780BE5B
:0108BE000039
:00000001FF
