:100AA5000080009C00C000E200EE00FF00EE00E2C6
:100AB50000C0008000400020000600040000001077
:040AC50000200040CD
:040B1800022C0000AB
:070A7E008582907F027E00DB
:100A8500E4FDFCC3ED9FEC9E5015E4FBFA0BBB00A7
:0F0A9500010ABA03F8BBE8F50DBD00010C80E4BF
:010AA400222F
:100A4B0078087C007D007BFF7A0A79A57E007F24E5
:100A5B001208D0900000AF82EF25E02408F808E6DA
:100A6B00F5907F037E00120A85A3E582641245830D
:020A7B0070E425
:010A7D002256
:100AC900900000120A7EA3E582F4458370F5900038
:100AD900FF120A7EE582158270021583E58245833D
:020AE90070EFAC
:010AEB0022E8
:100AEC009000007590FF7F327E00120A85E4F5902D
:0C0AFC00120A85A3E5826464458370E75C
:010B080022CA
:070B1100D288D2A8D2AF2266
:030003000209D718
:1009D700C0E0C0F0C083C082C0D075D000C000C0E6
:0D09E70001C002C003C004C005C006C00767
:1009F400AE2CAF2D7C007D031208F6EC702EED14A6
:100A0400601414601E24027023120A4B052DE52D78
:100A1400701A052C8016120AC9052DE52D700D05D6
:0C0A24002C8009120AEC752C00752D00C6
:100A3000D007D006D005D004D003D002D001D0001A
:0B0A4000D0D0D082D083D0F0D0E032C4
:080B0900120B11120AEC80FB33
:0300000002094BA7
:0C094B00787FE4F6D8FD75812D0209923A
:10080000E709F608DFFA8046E709F208DFFA803EDA
:1008100088828C83E709F0A3DFFA8032E309F608C7
:10082000DFFA8078E309F208DFFA807088828C832F
:10083000E309F0A3DFFA806489828A83E0A3F608E3
:10084000DFFA805889828A83E0A3F208DFFA804CBD
:1008500080D280FA80C680D4806980F28033801094
:1008600080A680EA809A80A880DA80E280CA8033FD
:1008700089828A83ECFAE493A3C8C582C8CCC58375
:10088000CCF0A3C8C582C8CCC583CCDFE9DEE78045
:100890000D89828A83E493A3F608DFF9ECFAA9F0C4
:1008A000EDFB2289828A83ECFAE0A3C8C582C8CC1A
:1008B000C583CCF0A3C8C582C8CCC583CCDFEADE33
:1008C000E880DB89828A83E493A3F208DFF980CC95
:1008D00088F0EF60010E4E60C388F0ED2402B4048E
:1008E0000050B9F582EB2402B4040050AF23234535
:0608F00082239008507302
:1008F600BC000BBE0029EF8DF084FFADF022E4CCE6
:10090600F875F008EF2FFFEE33FEEC33FCEE9DECAE
:10091600984005FCEE9DFE0FD5F0E9E4CEFD22EDF4
:10092600F8F5F0EE8420D21CFEADF075F008EF2F3E
:10093600FFED33FD4007985006D5F0F222C398FD2F
:050946000FD5F0EA22CC
:10095700020B09E493A3F8E493A34003F68001F2A2
:1009670008DFF48029E493A3F85407240CC8C333A1
:10097700C4540F4420C8834004F456800146F6DF70
:10098700E4800B0102040810204080900B18E47EDD
:10099700019360BCA3FF543F30E509541FFEE49365
:1009A700A360010ECF54C025E060A840B8E493A32C
:1009B700FAE493A3F8E493A3C8C582C8CAC583CA57
:1009C700F0A3C8C582C8CAC583CADFE9DEE780BE0F
:010B1C0000D8
:00000001FF
