:10080000A290B3B091B0925012D2A0C2A1D2A2C213
:10081000A3D2A4C2A5D2A6C2A780E5A290B3B091EC
:100820008292500EC2A0D2A1C2A2D2A3C2A4D2A5CB
:100830008040A291B090B092500ED2A0D2A1C2A29C
:10084000C2A3D2A4D2A5805AA291B0908292500E97
:10085000C2A0C2A1D2A2D2A3C2A4C2A5805FA2900C
:10086000B091B0925012D2A0C2A1D2A2C2A3D2A47F
:10087000C2A5C2A6D2A78088A290B0918292500E43
:10088000C2A0C2A1C2A2D2A3C2A4D2A5802FA2910B
:100890008290B0925013D2A0D2A1D2A2D2A3C2A46D
:1008A000C2A5C2A6C2A7020800A29182908292505D
:1008B00013C2A0C2A1C2A2C2A3D2A4D2A5D2A6D260
:1008C000A7020800C2A0C2A1C2A2C2A3C2A4C2A51C
:0708D000C2A6C2A702080046
:030000000208D71C
:0C08D700787FE4F6D8FD75810702080068
:00000001FF
