:0408C8000208000121
:0300030002088C64
:10088C00C0E0750A00750B00050BE50B7002050A3C
:10089C006464450A70F2E509640F45087006F508B2
:1008AC00F50980080509E50970020508850990D04D
:0208BC00E03228
:0A08BE00D2A8D288D2AFD2B280FED9
:03000000020800F3
:0C080000787FE4F6D8FD75810B020847F4
:10080C000208BEE493A3F8E493A34003F68001F23C
:10081C0008DFF48029E493A3F85407240CC8C333ED
:10082C00C4540F4420C8834004F456800146F6DFBC
:10083C00E4800B01020408102040809008C8E47E7C
:10084C00019360BCA3FF543F30E509541FFEE493B1
:10085C00A360010ECF54C025E060A840B8E493A378
:10086C00FAE493A3F8E493A3C8C582C8CAC583CAA3
:10087C00F0A3C8C582C8CAC583CADFE9DEE780BE5B
:0108CC00002B
:00000001FF
