:0B0A5000C0F9A4B0999282F88090BF1A
:10090800E4F508F509AF09A8077401088002C333A4
:10091800D8FCF4F5A0E4F50AF50B7E007440A80BAA
:10092800088006CEA2E713CE13D8F8FFADA0EF5D7E
:1009380060030209BDE509640345087024E50A70EF
:1009480074E50B14600914600D240270688007E4D4
:10095800F50CF50D8033750C00750D0A75908080C7
:1009680035AE08AF097C007D031208F6E50B2FCFE2
:10097800E50A3ECF2401F50DE43FF50CC3E50D94DF
:100988000AE50C64809480502CAD0BAC0AAF09AE1C
:10099800081209EF8F90AF0DAE0C120A247E007476
:1009A80040A80B088006CEA2E713CE13D8F8FFADF7
:1009B800A0EF5D60E8050BE50B7002050AC3940320
:1009C800E50A6480948050030209220509E509704C
:1009D800020508C39404E508648094805003020962
:0709E8000DE4F5900209087F
:040A24008E0E8F0F94
:100A280078107C007D007BFF7A0A79507E007F0B6E
:0B0A38001208D07410250FF8E6F5B08E
:010A43002290
:1009EF00AB07AA06ED2404FF7E007401A807088058
:1009FF0005C333CE33CED8F9FDAC06AF037E0074FA
:100A0F0001A807088005C333CE33CED8F9FFEE4CCB
:050A1F00FEEF4DFF2277
:03000000020A44AD
:0C0A4400787FE4F6D8FD75811A020908DD
:10080000E709F608DFFA8046E709F208DFFA803EDA
:1008100088828C83E709F0A3DFFA8032E309F608C7
:10082000DFFA8078E309F208DFFA807088828C832F
:10083000E309F0A3DFFA806489828A83E0A3F608E3
:10084000DFFA805889828A83E0A3F208DFFA804CBD
:1008500080D280FA80C680D4806980F28033801094
:1008600080A680EA809A80A880DA80E280CA8033FD
:1008700089828A83ECFAE493A3C8C582C8CCC58375
:10088000CCF0A3C8C582C8CCC583CCDFE9DEE78045
:100890000D89828A83E493A3F608DFF9ECFAA9F0C4
:1008A000EDFB2289828A83ECFAE0A3C8C582C8CC1A
:1008B000C583CCF0A3C8C582C8CCC583CCDFEADE33
:1008C000E880DB89828A83E493A3F208DFF980CC95
:1008D00088F0EF60010E4E60C388F0ED2402B4048E
:1008E0000050B9F582EB2402B4040050AF23234535
:0608F00082239008507302
:1008F600EF8DF0A4A8F0CF8CF0A428CE8DF0A42E16
:02090600FE22CF
:00000001FF
