:030000000209777B
:0C097700787FE4F6D8FD75810B020800C3
:10080000C2A2C2A1C2A0C292C291C290C2A3C29708
:10081000D2A7C295C296C2A6D2A7E4F50AF50B05E7
:100820000BE50B7002050AB420F5E50AB44EF0752D
:100830008901E4F58CF58A209731D2A320900C2011
:100840009109209206C2A2C2A1C2A0309002D2A0F9
:10085000309102D2A1309202D2A2209002C2A020F6
:100860009102C2A120920CC2A28008C2A3C2A2C25D
:10087000A1C2A0D2A6E4F50AF50B050BE50B7002A8
:10088000050A640B450A70F2C2A630A7FDD28C207F
:10089000A7FDC28CAF8C7E00ADF0EFA805088005E7
:1008A000C333CE33CED8F9F5098E08AF8A2FF509B8
:1008B000E43508F508FEAF097C007D051209028EBB
:1008C000088F09E4F58CF58AF50AF50B050BE50BA5
:1008D0007002050AB421F5E50AB44EF0C3E50994A7
:1008E00019E50894005004D2958002C295D3E50919
:1008F0009432E50894004005D296020837C2960269
:020900000837B6
:10095700E4FDFCC3ED9FEC9E5015E4FBFA0BBB00D6
:0F096700010ABA05F8BB5FF50DBD00010C80E475
:01097600225E
:10090200BC000BBE0029EF8DF084FFADF022E4CCD9
:10091200F875F008EF2FFFEE33FEEC33FCEE9DECA2
:10092200984005FCEE9DFE0FD5F0E9E4CEFD22EDE8
:10093200F8F5F0EE8420D21CFEADF075F008EF2F32
:10094200FFED33FD4007985006D5F0F222C398FD23
:050952000FD5F0EA22C0
:00000001FF
