:100AD300456E74657220317374206E6F2E00456EFF
:100AE300746572206F70657261746F722E00456E4B
:100AF30074657220326E64206E6F2E005468652018
:100B0300526573756C742069733A20003738392F36
:0C0B13003435362A3132332D653D302B4D
:080C0A00120BCF12094380FB1D
:0E0B60007FC0120BEAAF08120BBB7FE87E03CA
:100B6E00E4FDFCC3ED9FEC9E5015E4FBFA0BBB00BD
:0F0B7E00010AEB647F4A70F50DBD00010C80E4A5
:010B8D002245
:100BEA00C2B78FA0D2B67F017E00120B6EC2B67F4B
:040BFA0005020B6E77
:080BB3002430FF120BBB7F2070
:100BBB00D2B78FA0D2B67F017E00120B6EC2B67F6A
:040BCB0005020B6EA6
:100BCF007F0F7E00120B6E7F38120BEA7F0C120B19
:0B0BDF00EA7F01120BEA7F06020BEA1E
:10094300E4F509F50AF50D7F01120BEA7BFF7A0A3C
:1009530079D3120B8E120A528F08E508C3943040E4
:10096300F4E508D3943950EDE50824D0F509120BCA
:10097300607F01120BEA7BFF7A0A79E1120B8E1278
:100983000A528F08E508642B6011E508642D600B9B
:10099300E508642A6005E508B42FE485080D120B09
:1009A300607F01120BEA7BFF7A0A79F1120B8E1238
:1009B3000A528F08E508C3943040F4E508D394390C
:1009C30050EDE50824D0F50A120B60E50D24D6603E
:1009D3003D24FD602024FE604C24047063AF0AEFC5
:1009E3003395E0FEAD09ED3395E0FCED2FF50CEC0E
:1009F3003EF50B804BAF0AEF3395E0FEAD09ED33C7
:100A030095E0FCC3ED9FF50CEC9EF50B8032E50AF7
:100A1300FD3395E0FCAF09EF3395E0FE1209318E0B
:100A23000B8F0C801BE50A6012E509850AF012089A
:100A3300F6FF3395E0F50B8F0C8005E4F50BF50C11
:0F0A4300850B11850C12AB0AAD0DAF09020B1F0D
:100A520078137C007D007BFF7A0B790F7E007F107C
:100A62001208D0E4F523AF23A8077401088002C35B
:100A720033D8FCF4F590E4F9E92404FF7E00740114
:100A8200A807088005C333CE33CED8F9FFAD90EF67
:100A92005D702E7F14FE120B6EE92404FF7E00743B
:100AA20001A807088005C333CE33CED8F9FFAD9035
:100AB200EF5D60E5E52325E025E0241329F8E6FF54
:100AC2002209B904B30523E523C3940440987F2087
:010AD2002201
:100B8E008B138A148915AB13AA14A91512091860B0
:100B9E00130515E5157002051414F9120918FF1244
:050BAE000BBB80E222F8
:060B1F008F0E8D0F8B10FC
:100B25007F01120BEA7F80120BEA7BFF7A0A79FFBD
:100B3500120B8E7FC0120BEAE50E120BB3AF0F122C
:100B45000BB6E510120BB37F3D120BB6E512243040
:0A0B5500FF120BBB120A52BF65FA33
:010B5F002273
:03000000020BFEF2
:0C0BFE00787FE4F6D8FD758123020C0A14
:10080000E709F608DFFA8046E709F208DFFA803EDA
:1008100088828C83E709F0A3DFFA8032E309F608C7
:10082000DFFA8078E309F208DFFA807088828C832F
:10083000E309F0A3DFFA806489828A83E0A3F608E3
:10084000DFFA805889828A83E0A3F208DFFA804CBD
:1008500080D280FA80C680D4806980F28033801094
:1008600080A680EA809A80A880DA80E280CA8033FD
:1008700089828A83ECFAE493A3C8C582C8CCC58375
:10088000CCF0A3C8C582C8CCC583CCDFE9DEE78045
:100890000D89828A83E493A3F608DFF9ECFAA9F0C4
:1008A000EDFB2289828A83ECFAE0A3C8C582C8CC1A
:1008B000C583CCF0A3C8C582C8CCC583CCDFEADE33
:1008C000E880DB89828A83E493A3F208DFF980CC95
:1008D00088F0EF60010E4E60C388F0ED2402B4048E
:1008E0000050B9F582EB2402B4040050AF23234535
:0608F00082239008507302
:1008F600C2D530F707B2D563F0FF05F030E70CB28A
:10090600D5F4048463F0FF05F080018430D502F449
:020916000422B9
:10091800BB010689828A83E0225002E722BBFE02DD
:09092800E32289828A83E4932210
:10093100EF8DF0A4A8F0CF8CF0A428CE8DF0A42EDA
:02094100FE2294
:00000001FF
