:10086500E4FFFE0FBF00010EBE75F8BF30F5E4FED4
:10087500FF0FBF00010EBE75F8BF30F5E4FEFF0F98
:0A088500BF00010EBE75F8BF30F58C
:01088F002246
:10080000E4F5907590C01208657590F91208657549
:1008100090A41208657590B0120865759099120839
:10082000657590921208657590821208657590F84A
:1008300012086575908012086575909012086575AC
:1008400090881208657590831208657590C6120825
:10085000657590A112086575908612086575908E71
:05086000120865809EF6
:0300000002089063
:0C089000787FE4F6D8FD758107020800AF
:00000001FF
