:1009A70012098C12097012088B7F057E00120950FC
:0209B70080F1CD
:080948008FA0D2B67F017E00F2
:10095000E4FDFCC3ED9FEC9E5015E4FBFA0BBB00DD
:0F096000010AEB647F4A70F50DBD00010C80E4C5
:01096F002265
:0A09D200C2B7120948C2B60209506C
:0309B9002430FFE8
:0A09BC00D2B7120948C2B602095072
:10098C007F0F7E001209507F381209D27F0E120998
:0B099C00D27F011209D27F060209D2AF
:10090C007F801209D27F321209BC7F311209BC7F61
:10091C00501209BC7F571209BC7F431209BC7F538C
:10092C001209BC7F451209BC7F311209BC7F3912F8
:0C093C0009BC7F391209BC7F360209BCDF
:10097000C2B57F057E00120950D2B520B2FDC2B4C7
:0B098000A9907F0A7E00120950AF0111
:01098B002249
:10088B00E4F508F509F50AEF75F00AA4FBAAF07C6C
:10089B00007D0AFFAE021208008D0A7C007D64AF5A
:1008AB0003AE021208007C007D0A1208008D09AE0F
:1008BB0002AF037C007D0A1208007C007D0A12083F
:1008CB0000A9057F011209D212090C7FC01209D2AF
:1008DB00E50960031209B9E97004E5096004E9123E
:1008EB0009B9E5082430FF1209BC7F2E1209BCE5BB
:1008FB000A2430FF1209BC7F201209BC7F43020976
:01090B00BC2F
:030000000209C62C
:0C09C600787FE4F6D8FD75810A0209A7CD
:10080000C2D5EC30E709B2D5E4C39DFDE49CFCEE13
:1008100030E715B2D5E4C39FFFE49EFE120836C34D
:10082000E49DFDE49CFC800312083630D507C3E448
:060830009FFFE49EFE2282
:10083600BC000BBE0029EF8DF084FFADF022E4CCA6
:10084600F875F008EF2FFFEE33FEEC33FCEE9DEC6F
:10085600984005FCEE9DFE0FD5F0E9E4CEFD22EDB5
:10086600F8F5F0EE8420D21CFEADF075F008EF2FFF
:10087600FFED33FD4007985006D5F0F222C398FDF0
:050886000FD5F0EA228D
:00000001FF
