:0C09F100373839343536313233203020AD
:1009BA0012099F1208F68F08E508642060F51209EB
:0309CA00E580F0D5
:080977008FA0D2B67F017E00C3
:10097F00E4FDFCC3ED9FEC9E5015E4FBFA0BBB00AE
:0F098F00010AEB647F4A70F50DBD00010C80E496
:01099E002236
:0C09CD00C2B7120977C2B67F0502097F8D
:0C09D900D2B7120977C2B67F0502097F71
:10099F007F0F7E0012097F7F381209CD7F0E12095B
:0B09AF00CD7F011209CD7F060209CDAB
:1008F60078097C007D007BFF7A0979F17E007F0C08
:100906001208D0E4F515AF15A8077401088002C3D4
:1009160033D8FCF4F590E4F9E92404FF7E00740171
:10092600A807088005C333CE33CED8F9FFAD90EFC4
:100936005D702E7F14FE12097FE92404FF7E007489
:1009460001A807088005C333CE33CED8F9FFAD9092
:10095600EF5D60E5E51575F003A4240929F8E6FFC7
:100966002209B903B30515E515C3940440987F2001
:01097600225E
:0C09E500A9077F801209CDAF010209D9DB
:030000000209FDF5
:0C09FD00787FE4F6D8FD7581150209BA78
:10080000E709F608DFFA8046E709F208DFFA803EDA
:1008100088828C83E709F0A3DFFA8032E309F608C7
:10082000DFFA8078E309F208DFFA807088828C832F
:10083000E309F0A3DFFA806489828A83E0A3F608E3
:10084000DFFA805889828A83E0A3F208DFFA804CBD
:1008500080D280FA80C680D4806980F28033801094
:1008600080A680EA809A80A880DA80E280CA8033FD
:1008700089828A83ECFAE493A3C8C582C8CCC58375
:10088000CCF0A3C8C582C8CCC583CCDFE9DEE78045
:100890000D89828A83E493A3F608DFF9ECFAA9F0C4
:1008A000EDFB2289828A83ECFAE0A3C8C582C8CC1A
:1008B000C583CCF0A3C8C582C8CCC583CCDFEADE33
:1008C000E880DB89828A83E493A3F208DFF980CC95
:1008D00088F0EF60010E4E60C388F0ED2402B4048E
:1008E0000050B9F582EB2402B4040050AF23234535
:0608F00082239008507302
:00000001FF
