:0308C2000108002A
:03000B0002088C5C
:02088C00C0E0CA
:10088E00C28CE508700DD293758CFC758A187508AC
:10089E0001800BC293758CFC758AC5750800D28CCD
:0308AE00D0E03265
:1008B100758901758CFC758A18D2A9D2AFD28C804A
:0108C100FE38
:03000000020800F3
:0C080000787FE4F6D8FD758108020847F7
:10080C000208B1E493A3F8E493A34003F68001F249
:10081C0008DFF48029E493A3F85407240CC8C333ED
:10082C00C4540F4420C8834004F456800146F6DFBC
:10083C00E4800B01020408102040809008C2E47E82
:10084C00019360BCA3FF543F30E509541FFEE493B1
:10085C00A360010ECF54C025E060A840B8E493A378
:10086C00FAE493A3F8E493A3C8C582C8CAC583CAA3
:10087C00F0A3C8C582C8CAC583CADFE9DEE780BE5B
:0108C5000032
:00000001FF
