:0408C3000208000027
:0300030002088C64
:10088C00C0E0C0D07508007509000509E5097002C3
:10089C0005086464450870F2A2B4B392B4D0D0D009
:0208AC00E03238
:1008AE00D2A0D2B2D2A8D2AFD28820A004D2A18038
:0508BE00F9C2A180F564
:03000000020800F3
:0C080000787FE4F6D8FD758109020847F6
:10080C000208AEE493A3F8E493A34003F68001F24C
:10081C0008DFF48029E493A3F85407240CC8C333ED
:10082C00C4540F4420C8834004F456800146F6DFBC
:10083C00E4800B01020408102040809008C3E47E81
:10084C00019360BCA3FF543F30E509541FFEE493B1
:10085C00A360010ECF54C025E060A840B8E493A378
:10086C00FAE493A3F8E493A3C8C582C8CAC583CAA3
:10087C00F0A3C8C582C8CAC583CADFE9DEE780BE5B
:0108C7000030
:00000001FF
