:1008A20041696D616C204B68616E00323150574373
:0708B20053453139393600CE
:10084D0012086E7F801208B97BFF7A0879A2120810
:10085D00287FC01208B97BFF7A0879AD120828806D
:01086D00FE8C
:080800008FA0D2B67F017E003B
:10080800E4FDFCC3ED9FEC9E5015E4FBFA0BBB0026
:0F081800010AEB647F4A70F50DBD00010C80E40E
:0108270022AE
:0C08B900C2B7120800C2B67F0502080892
:0C08C500D2B7120800C2B67F0502080876
:10086E007F381208B97F0E1208B97F011208B97FBE
:0B087E00061208B97F057E0002080882
:100828008B088A09890AAB08AA09A90A12088960EB
:1008380013050AE50A7002050914F9120889FF125E
:0508480008C580E2225A
:030000000208D122
:0C08D100787FE4F6D8FD75810A02084D1E
:10088900BB010689828A83E0225002E722BBFE026D
:09089900E32289828A83E49322A0
:00000001FF
