:10085100E4F508F509C3E5099FE5089E501FE4F595
:100861000AF50B050BE50B7002050AB4C9F5E50A9B
:0E087100B404F00509E50970DC050880D82202
:10080000E4F508F509750C00E509540FF50D750EB2
:1008100000E50954F0F50FE50D6409450C7004F589
:100820000CF50DE50F6490450E7004F50EF50FAF55
:100830000FEFC454F0450DF5A07F1E7E0012085145
:100840000509E50970020508C3E508940140B68072
:01085000AFF8
:0300000002087F74
:0C087F00787FE4F6D8FD75810F020800B8
:00000001FF
